:020000040000FA
:100000000C9464000C948C000C948C000C948C0068
:100010000C948C000C948C000C948C000C9436077F
:100020000C948C000C948C000C948C000C948C0020
:100030000C948C000C948C000C948C000C948C0010
:100040000C94EA070C948C000C94B8070C9492075B
:100050000C948C000C948C000C948C000C948C00F0
:100060000C948C000C948C000000000024002700ED
:100070002A000000000023002600290000000008DC
:10008000000201000003040700000000000000005F
:10009000010204081020408001020408102001021F
:1000A0000408102000000000250028002B00040494
:1000B0000404040404040202020202020303030310
:1000C0000303020034088F0A11241FBECFEFD8E0CB
:1000D000DEBFCDBF11E0A0E0B1E0E2EDFEE102C085
:1000E00005900D92AE34B107D9F722E0AEE4B1E04D
:1000F00001C01D92A131B207E1F710E0C3E6D0E0E4
:1001000004C02197FE010E94640DC236D107C9F7D1
:100110000E94A8080C945C0F0C940000AF92BF9250
:10012000CF92DF92EF92FF920F931F93CF93DF93C3
:100130006C017B018B01040F151FEB015E01AE18F2
:10014000BF08C017D10759F06991D601ED91FC9114
:100150000190F081E02DC6010995892B79F7C50141
:10016000DF91CF911F910F91FF90EF90DF90CF9093
:10017000BF90AF900895FC01538D448D252F30E042
:10018000842F90E0821B930B541710F0CF960895A4
:1001900001970895FC01918D828D981761F0A28DD1
:1001A000AE0FBF2FB11D5D968C91928D9F5F9F7397
:1001B000928F90E008958FEF9FEF0895FC01918D4D
:1001C000828D981731F0828DE80FF11D858D90E0BA
:1001D00008958FEF9FEF0895FC01918D228D892F57
:1001E00090E0805C9F4F821B91098F73992708953F
:1001F0008AE691E00E94EC0021E0892B09F420E0DE
:10020000822F089580E090E0892B29F00E94F80069
:1002100081110C9400000895FC01A48DA80FB92F42
:10022000B11DA35ABF4F2C91848D90E001968F731E
:100230009927848FA689B7892C93A089B1898C913D
:10024000837080648C93938D848D981306C002888C
:10025000F389E02D80818F7D80830895EF92FF9256
:100260000F931F93CF93DF93EC0181E0888F9B8DD9
:100270008C8D98131AC0E889F989808185FF15C093
:100280009FB7F894EE89FF896083E889F9898081B6
:100290008370806480839FBF81E090E0DF91CF9185
:1002A0001F910F91FF90EF900895F62E0B8D10E0A7
:1002B0000F5F1F4F0F731127E02E8C8D8E110CC016
:1002C0000FB607FCFACFE889F989808185FFF5CF61
:1002D000CE010E940C01F1CFEB8DEC0FFD2FF11D33
:1002E000E35AFF4FF0829FB7F8940B8FEA89FB899E
:1002F00080818062CFCFCF93DF93EC01888D8823FC
:10030000B9F0AA89BB89E889F9898C9185FD03C078
:10031000808186FD0DC00FB607FCF7CF8C9185FF5D
:10032000F2CF808185FFEDCFCE010E940C01E9CF95
:10033000DF91CF910895833081F028F4813099F0D6
:100340008230A9F008958730A9F08830C9F0843050
:10035000B1F4809180008F7D03C0809180008F7701
:1003600080938000089584B58F7784BD089584B507
:100370008F7DFBCF8091B0008F778093B000089580
:100380008091B0008F7DF9CFCF93DF93282F30E09D
:10039000F901E458FF4F8491F901E057FF4FD491E0
:1003A000F901E255FF4FC491CC23A1F081110E94C5
:1003B0009B01EC2FF0E0EE0FFF1FEE58FF4FA591D1
:1003C000B491EC91ED2381E090E009F480E0DF91BD
:1003D000CF91089580E090E0FACF1F93CF93DF9301
:1003E000282F30E0F901E458FF4F8491F901E057DC
:1003F000FF4FD491F901E255FF4FC491CC23A9F0EE
:10040000162F81110E949B01EC2FF0E0EE0FFF1FD1
:10041000EC55FF4FA591B4918FB7F894EC91111161
:1004200008C0D095DE23DC938FBFDF91CF911F9161
:100430000895DE2BF8CF9091010189130BC0E2ECF7
:10044000F0E0E4919FEF90930101E13049F028F052
:10045000E23061F060E00C94ED0110926E00FACF92
:1004600090916F009D7F90936F00F4CF90917000FA
:100470009D7F9093700091E09093B0009091B100B7
:10048000987F94609093B1001092B300E3CFCF9324
:10049000DF9390E0FC01E057FF4F249182559F4F7E
:1004A000FC0184918823D1F090E0880F991FFC0112
:1004B000E859FF4FA591B491FC01EC55FF4FC59150
:1004C000D491623071F49FB7F8943C91822F80955B
:1004D00083238C93E8812E2B28839FBFDF91CF91BC
:1004E00008958FB7F894EC912E2B2C938FBFF6CFF5
:1004F0004F925F926F927F928F929F92AF92BF9234
:10050000CF92DF92EF92FF920F931F93CF93DF93DF
:1005100000D000D01F92CDB7DEB78C012A013B017D
:10052000809101018C30C9F08F3F09F47FC00F909A
:100530000F900F900F900F90DF91CF911F910F911F
:10054000FF90EF90DF90CF90BF90AF909F908F90F3
:100550007F906F905F904F900895E2ECF0E084916F
:100560008D8387FDE4CF61E08CE00E9447028D819E
:10057000882321F09D81923009F05CC14801B12CA3
:10058000A12C60E072E18AE790E0A50198010E9449
:100590006C0C29833A834B835C8369017A0181E087
:1005A000C81AD108E108F1089FEFC916D104E10487
:1005B000F10409F00CF413C160E472E48FE090E000
:1005C000A50198010E946C0C69017A0181E0C81AAA
:1005D000D108E108F1089D81923009F098C08FEFB1
:1005E000C816D104E104F10409F00CF4DDC160E99E
:1005F00070ED83E090E0A50198010E946C0C690108
:100600007A0191E0C91AD108E108F1088FEFC81604
:10061000D104E104F10411F00CF0A3C183E0909146
:10062000B100987F892B8093B100E1C08CE080936A
:100630000101E2ECF0E094919D839F3F09F477CFB4
:10064000913029F158F0923009F43FC08D8187FD37
:100650006ECF61E08CE00E9447028CCF14BC15BCC9
:1006600084B5826084BD85B5816085BDEAEBF0E02C
:10067000E491F0E0EE0FFF1FEC55FF4F8591949150
:10068000ECE9F0E0E491E0935D011D826CCF109203
:1006900080001092810080918100886080938100A9
:1006A00080918100816080938100EAEBF0E0E49129
:1006B000F0E0EE0FFF1FEC55FF4F85919491ECE9B0
:1006C000F0E0E491E0935C014ECF1092B000109204
:1006D000B1008091B00082608093B0008091B10041
:1006E00081608093B100EAEBF0E0E491F0E0EE0F7E
:1006F000FF1FEC55FF4F8591949190935B01809380
:100700005A01ECE9F0E0E491E09359012CCF9FEF1E
:10071000C916D104E104F10409F00CF489C068E4BD
:1007200078EE81E090E0A50198010E946C0C6901CF
:100730007A0181E0C81AD108E108F1089D81992366
:1007400009F428C19FEFC916D104E104F10409F0AE
:100750000CF41EC162E17AE780E090E0A50194010B
:100760000E946C0C69017A0181E0C81AD108E10885
:10077000F1089D81992309F4EBC08FEFC816D104CD
:10078000E104F10411F008F0BFC086E048CF64E254
:1007900074EF80E090E0A50194010E946C0C690167
:1007A0007A0181E0C81AD108E108F10885E09FEFDD
:1007B000C916D104E104F10409F008F430CF62E174
:1007C0007AE780E090E0A50194010E946C0C690139
:1007D0007A0191E0C91AD108E108F108CECF81E091
:1007E0009D8191111CCF95B5987F892B85BD2FEFE9
:1007F0003FEFA901411451046104710409F043C0A1
:100800009D81913009F45EC0923009F46DC0911160
:100810008ECEC7BC20936601309367014093680178
:100820005093690180916E00826080936E007FCE4C
:1008300082E0D6CFB12CA12C60E072E18AE790E093
:10084000A50198010E946C0C69017A0181E0C81A27
:10085000D108E108F108C114D10491E0E906F104DE
:1008600004F591E08D81813011F680918100887FBF
:10087000892B809381002FEF3FEFA9014114510490
:1008800061047104F9F0D801AA0FBB1FA301920102
:100890000E948B0C28EE33E040E050E00E94D50C23
:1008A000AFCF68E478EE81E090E0A50198010E9466
:1008B0006C0C69017A0181E0C81AD108E108F108DD
:1008C00093E0D0CFD0928900C0928800209362013B
:1008D00030936301409364015093650180916F00F0
:1008E000826080936F0023CEC092B30020935E019C
:1008F00030935F01409360015093610180917000DB
:1009000082608093700013CEC980DA80EB80FC8017
:100910009AE0F594E794D794C7949A95D1F791E02B
:10092000C91AD108E108F10887E079CEC980DA80D8
:10093000EB80FC808AE0F594E794D794C7948A957D
:10094000D1F791E0C91AD108E108F10885E04BCF51
:100950008FEFC816D104E104F10409F038F784E000
:1009600042CF68E478EE81E090E0A50198010E9412
:100970006C0C69017A0191E0C91AD108E108F1080B
:100980008FEFC816D104E104F10411F00CF0FFCE92
:1009900084E045CE8FEFC816D104E104F10411F0D4
:1009A0000CF0D8CE83E01FCF82E039CE3FB7F89469
:1009B0008091530190915401A0915501B09156013D
:1009C00026B5A89B05C02F3F19F00196A11DB11DAA
:1009D0003FBFBA2FA92F982F8827BC01CD01620FE6
:1009E000711D811D911D42E0660F771F881F991FA1
:1009F0004A95D1F708958F929F92AF92BF92CF926E
:100A0000DF92EF92FF926B017C010E94D6044B01B2
:100A10005C01C114D104E104F104B9F00E94D604D0
:100A2000681979098A099B09683E73408105910517
:100A300080F321E0C21AD108E108F10888EE880E9F
:100A400083E0981EA11CB11CE4CFFF90EF90DF90D3
:100A5000CF90BF90AF909F908F900895CF93DF93EA
:100A6000EC0161E082E00E94ED0144E650E060E0CC
:100A700070E087EF90E00E947802BE01DD0F880BE6
:100A8000990B0E94FB0460E082E0DF91CF910C940F
:100A9000ED01CF93DF93EC0161E083E00E94ED0173
:100AA00044E650E060E070E08CED90E00E94780257
:100AB000BE01DD0F880B990B0E94FB0460E083E010
:100AC000DF91CF910C94ED01CF93DF93EC0161E0C6
:100AD00084E00E94ED0144E650E060E070E084ECC8
:100AE00090E00E947802BE01DD0F880B990B0E94F6
:100AF000FB0460E084E0DF91CF910C94ED01CF9393
:100B0000DF93EC0161E085E00E94ED0144E650E0F6
:100B100060E070E086E091E00E947802BE01DD0FA7
:100B2000880B990B0E94FB0460E085E0DF91CF9178
:100B30000C94ED01682F409157015091580180911C
:100B40000B0290910C024817590778F42091070284
:100B5000309108022115310541F0240F351FF901AC
:100B6000908181E0691380E0089590E0FACFAF9220
:100B7000BF92CF92DF92EF92FF920F931F93CF938A
:100B8000DF93C8E1D1E00CE011E088EEA82E83E00D
:100B9000B82E69917991C5010E943C0D6B01770FC8
:100BA000EE08FF08B701A601F801819191918F012C
:100BB0000E947802C701B6010E94730B20E030E06A
:100BC00040EC5FE30E94AE0B0E94060D072E000C66
:100BD000880B990B0E94FB048CE00E941B02F1E041
:100BE000C432DF07B1F664EF71E080E090E0DF919E
:100BF000CF911F910F91FF90EF90DF90CF90BF901A
:100C0000AF900C94FB04FC0101900020E9F73197B0
:100C1000AF01481B590BBC018AE691E00C948E0091
:100C2000CF93DF93EC018091070290910802009727
:100C300059F02091090230910A022C173D0720F04B
:100C400081E0DF91CF910895BE016F5F7F4F0E94D9
:100C50008F0E009789F09093080280930702D0933B
:100C60000A02C093090220910B0230910C02232B3F
:100C700039F7FC011082E4CF80E0E3CF8F929F929E
:100C8000AF92BF92CF92DF92EF92FF92CF93DF931A
:100C9000CDB7DEB7A1970FB6F894DEBF0FBECDBFBC
:100CA000C0905701D09058010D2C000CEE08FF08A1
:100CB000F7FE5CC06DE28AE691E00E942E012227D9
:100CC0003327A9012C193D094E095F0919A2CE014C
:100CD00081967C019AE0892E912CA12CB12CCA011D
:100CE000B901A50194010E94D50C605DF7016293E2
:100CF0007F01211531054105510589F7E114F10402
:100D000019F0C7010E94030686E391E00E940306E2
:100D1000809157019091580120910B0230910C0263
:100D20002150310928173907E1F51092000189E3B4
:100D300091E00E94030686E391E00E94030668EEBC
:100D400073E080E090E00E94FB04A1960FB6F89457
:100D5000DEBF0FBECDBFDF91CF91FF90EF90DF9050
:100D6000CF90BF90AF909F908F900895A70196016C
:100D700019A2CE0181967C018AE0882E912CA12CAB
:100D8000B12CCA01B901A50194010E94D50C605D86
:100D9000F70162937F01211531054105510589F75E
:100DA000ADCF01969093580180935701CECF82E446
:100DB00091E00E94030686E391E00E94030662E34D
:100DC00070E080E090E00E94FB044EE551E060E0BE
:100DD00070E08BE890E00E9478026EE571E080E0C0
:100DE00090E00E94FB044EE551E060E070E081E499
:100DF00090E00E9478026EE571E080E090E00E9451
:100E0000FB0468EC70E080E090E00E94FB040E942C
:100E1000B70590E080E00E94100620910702309113
:100E20000802811119C02115310519F0C9010E946C
:100E3000060E109208021092070210920C021092F5
:100E40000B0210920A02109209021092580110929D
:100E5000570110920001089510920C0210920B029B
:100E600068E371E0C9010E94550FEFCF1F920F9206
:100E70000FB60F9211242F933F934F935F936F936D
:100E80007F938F939F93AF93BF93EF93FF93809143
:100E90005E0190915F01A0916001B0916101892B89
:100EA0008A2B8B2BD1F190915901E0915A01F0914D
:100EB0005B0180818927808380915E0190915F0131
:100EC000A0916001B0916101181619061A061B065F
:100ED0009CF480915E0190915F01A0916001B091BE
:100EE00061010197A109B10980935E0190935F01AF
:100EF000A0936001B0936101FF91EF91BF91AF9119
:100F00009F918F917F916F915F914F913F912F9121
:100F10000F900FBE0F901F901895809101010E94B5
:100F20001B02EACF1F920F920FB60F9211242F933C
:100F30003F934F935F936F937F938F939F93AF9361
:100F4000BF93EF93FF938AE691E00E940C01FF911B
:100F5000EF91BF91AF919F918F917F916F915F9131
:100F60004F913F912F910F900FBE0F901F901895AA
:100F70001F920F920FB60F9211242F938F939F936E
:100F8000EF93FF93E0917A01F0917B018081E091F2
:100F90008001F091810182FD1BC0908180918301CD
:100FA0008F5F8F7320918401821741F0E09183015C
:100FB000F0E0E659FE4F958F80938301FF91EF910A
:100FC0009F918F912F910F900FBE0F901F901895AA
:100FD0008081F4CF1F920F920FB60F9211242F939E
:100FE0003F938F939F93AF93BF9380914F019091C5
:100FF0005001A0915101B091520130914E0123E076
:10100000230F2D3758F50196A11DB11D20934E01D8
:1010100080934F0190935001A0935101B0935201DE
:101020008091530190915401A0915501B0915601C6
:101030000196A11DB11D8093530190935401A0937B
:101040005501B0935601BF91AF919F918F913F9100
:101050002F910F900FBE0F901F90189526E8230F29
:101060000296A11DB11DD2CF10926D0110926C019C
:1010700088EE93E0A0E0B0E080936E0190936F0162
:10108000A0937001B093710188E291E090936B019D
:1010900080936A0185EC90E09093770180937601CC
:1010A00084EC90E0909379018093780180EC90E05B
:1010B00090937B0180937A0181EC90E090937D0185
:1010C00080937C0182EC90E090937F0180937E017D
:1010D00086EC90E0909381018093800110928301CF
:1010E00010928401109285011092860110920802DC
:1010F0001092070210920A021092090210920C023A
:1011000010920B0290E080E00E94100620910702EE
:1011100030910802811113C02115310519F0C90160
:101120000E94060E109208021092070210920C0202
:1011300010920B0210920A02109209020895109266
:101140000C0210920B0268E371E0C9010C94550F78
:10115000CF93DF93CDB7DEB728970FB6F894DEBFF5
:101160000FBECDBF789484B5826084BD84B58160A4
:1011700084BD85B5826085BD85B5816085BD809162
:101180006E00816080936E001092810080918100DA
:1011900082608093810080918100816080938100D2
:1011A000809180008160809380008091B100846094
:1011B0008093B1008091B00081608093B0008091F5
:1011C0007A00846080937A0080917A0082608093B4
:1011D0007A0080917A00816080937A0080917A0011
:1011E000806880937A001092C10061E085E00E94DF
:1011F000470261E084E00E94470261E083E00E94D0
:10120000470261E082E00E94470262E088E00E94BB
:10121000470262E089E00E94470262E08AE00E94A1
:10122000470262E08BE00E944702E0917A01F09170
:101230007B0182E08083E0917601F091770110825A
:10124000E0917801F09179018FEC80831092820116
:10125000E0917E01F0917F0186E08083E0917C0146
:10126000F0917D01808180618083E0917C01F0912B
:101270007D01808188608083E0917C01F0917D0117
:10128000808180688083E0917C01F0917D01808184
:101290008F7D808380E480937C0080917A008064DD
:1012A00080937A0080917A0086FDFCCF609178006F
:1012B00070917900072E000C880B990B6115710550
:1012C0008105910511F00E94330B61E084E00E94DA
:1012D000ED0161E085E00E94ED0161E083E00E94A4
:1012E000ED0161E082E00E94ED010E94B70560E03F
:1012F00084E00E94ED0160E085E00E94ED0160E085
:1013000083E00E94ED0160E082E00E94ED01109216
:10131000000184E0882E912CA12CB12CCE010196E5
:101320007C0190E0C92E90E0D92E772473948091AF
:10133000000181117CC010925801109257010E9447
:10134000E40AA50194010E946C0CCB014AE0B701AC
:101350000E943C0BF70101900020E9F73197EE194C
:10136000FF09E1F000910B0210910C020E0F1F1FFC
:10137000C8010E941006882389F02091070230914D
:10138000080280910B0290910C02B701820F931F0B
:101390000E94550F10930C0200930B0240910B0218
:1013A00050910C0260910702709108028AE691E068
:1013B0000E948E0086E391E00E94030610E000E0A8
:1013C00080910B0290910C020817190770F580911B
:1013D000070290910802009751F0800F911FFC01C5
:1013E0008081803369F480E991E00E947F056CE29E
:1013F00071E080E090E00E94FB040F5F1F4FE0CFA0
:10140000813329F480E991E00E946405F0CF8233B2
:1014100029F480E991E00E944905E9CF833339F747
:1014200080E991E00E942E05E2CF7092000188E0F1
:101430000E94C401892B91F484E690E00E947F050C
:1014400080E30E949A05882309F45DC00E943E064D
:101450006AEF70E080E090E00E94FB0489E00E9467
:10146000C401892B91F484E690E00E94640581E335
:101470000E949A05882309F449C00E943E066AEF3B
:1014800070E080E090E00E94FB048AE00E94C401CA
:10149000892B89F484E690E00E94490582E30E944A
:1014A0009A058823B1F10E943E066AEF70E080E061
:1014B00090E00E94FB048BE00E94C401892B89F418
:1014C00084E690E00E942E0583E30E949A0588231B
:1014D00019F10E943E066AEF70E080E090E00E9401
:1014E000FB0465E070E080E090E00E94FB04C11422
:1014F000D10409F41CCF0E94F800882309F417CF07
:101500000E94000014CF0E94D706A2CF0E94D706E7
:10151000B6CF0E94D706C9CF0E94D706DCCF8091F4
:10152000070290910802009711F00C94060E08959E
:101530008F929F92AF92BF92CF92DF92EF92FF92E3
:10154000CF93DF93EC01688179818A819B8161155A
:1015500071058105910521F464E279ED8BE597E051
:101560002DE133EF41E050E00E946C0C49015A013B
:101570009B01AC01A7EAB1E40E948B0C6B017C01DA
:10158000ACEEB4EFA50194010E94990CC60ED71ED3
:10159000E81EF91EF7FE06C081E0C81AD108E1086E
:1015A00080E8F80AC882D982EA82FB82C701B601C4
:1015B0009F77DF91CF91FF90EF90DF90CF90BF901A
:1015C000AF909F908F9008958F929F92AF92BF920D
:1015D000CF92DF92EF92FF9260910201709103012E
:1015E00080910401909105016115710581059105B6
:1015F00021F464E279ED8BE597E02DE133EF41E0F2
:1016000050E00E946C0C49015A019B01AC01A7EA11
:10161000B1E40E948B0C6B017C01ACEEB4EFA50130
:1016200094010E94990CC60ED71EE81EF91EF7FE03
:1016300006C081E0C81AD108E10880E8F80AC09223
:101640000201D0920301E0920401F0920501C7016A
:10165000B6019F77FF90EF90DF90CF90BF90AF9053
:101660009F908F900895609302017093030180937F
:101670000401909305010895BB274A3031F4992362
:1016800022F4BDE2909581959F4F0C94480BBB27A7
:10169000FB015527AA27880F991FAA1FA41710F02E
:1016A000A41B83955051B9F7A05DAA3308F0A95D3A
:1016B000A193009779F7B111B1931192CB010C94DA
:1016C000610BDC01FC01672F71917723E1F7329701
:1016D00004C07C916D9370836291AE17BF07C8F30D
:1016E0000895E89409C097FB3EF490958095709515
:1016F00061957F4F8F4F9F4F9923A9F0F92F96E95E
:10170000BB279395F695879577956795B795F111D2
:10171000F8CFFAF4BB0F11F460FF1BC06F5F7F4F6F
:101720008F4F9F4F16C0882311F096E911C0772381
:1017300021F09EE8872F762F05C0662371F096E88A
:10174000862F70E060E02AF09A95660F771F881F59
:10175000DAF7880F9695879597F908950E94C10B3F
:101760000C94320C0E94240C38F00E942B0C20F0B8
:10177000952311F00C941B0C0C94210C11240C9447
:10178000660C0E94430C70F3959FC1F3950F50E0D7
:10179000551F629FF001729FBB27F00DB11D639F23
:1017A000AA27F00DB11DAA1F649F6627B00DA11DC9
:1017B000661F829F2227B00DA11D621F739FB00D6F
:1017C000A11D621F839FA00D611D221F749F3327DF
:1017D000A00D611D231F849F600D211D822F762F78
:1017E0006A2F11249F5750409AF0F1F088234AF055
:1017F000EE0FFF1FBB1F661F771F881F91505040C1
:10180000A9F79E3F510580F00C941B0C0C94660CBC
:101810005F3FE4F3983ED4F3869577956795B79547
:10182000F795E7959F5FC1F7FE2B880F911D969561
:10183000879597F9089597F99F6780E870E060E0D1
:1018400008959FEF80EC089500240A941616170659
:1018500018060906089500240A94121613061406A1
:1018600005060895092E0394000C11F4882352F004
:10187000BB0F40F4BF2B11F460FF04C06F5F7F4FBC
:101880008F4F9F4F089557FD9058440F551F59F0A3
:101890005F3F71F04795880F97FB991F61F09F3F5D
:1018A00079F087950895121613061406551FF2CF86
:1018B0004695F1DF08C0161617061806991FF1CFD6
:1018C00086957105610508940895E894BB276627FD
:1018D0007727CB0197F90895052E97FB1EF4009406
:1018E0000E94830C57FD07D00E94D50C07FC03D043
:1018F0004EF40C94830C50954095309521953F4FB4
:101900004F4F5F4F089590958095709561957F4FEB
:101910008F4F9F4F08950E94F70CA59F900DB49F85
:10192000900DA49F800D911D11240895B7FF0C9474
:101930008B0C0E948B0C821B930B08952F923F926D
:101940004F925F926F927F928F929F92AF92BF92CF
:10195000CF92DF92EF92FF920F931F93CF93DF937B
:10196000CDB7DEB7CA1BDB0B0FB6F894DEBF0FBED8
:10197000CDBF09942A88398848885F846E847D8425
:101980008C849B84AA84B984C884DF80EE80FD8027
:101990000C811B81AA81B981CE0FD11D0FB6F8949D
:1019A000DEBF0FBECDBFED010895A1E21A2EAA1B26
:1019B000BB1BFD010DC0AA1FBB1FEE1FFF1FA217FF
:1019C000B307E407F50720F0A21BB30BE40BF50BFC
:1019D000661F771F881F991F1A9469F76095709585
:1019E000809590959B01AC01BD01CF010895A29F08
:1019F000B001B39FC001A39F700D811D1124911DE3
:101A0000B29F700D811D1124911D08950E940D0D2E
:101A10006894B1110C94660C08950E944B0C88F0E8
:101A20009F5798F0B92F9927B751B0F0E1F0660FA2
:101A3000771F881F991F1AF0BA95C9F714C0B130E3
:101A400091F00E94650CB1E008950C94650C672F2D
:101A5000782F8827B85F39F0B93FCCF38695779512
:101A60006795B395D9F73EF49095809570956195FB
:101A70007F4F8F4F9F4F089597FB072E16F40094CA
:101A800007D077FD09D00E94500D07FC05D03EF429
:101A9000909581959F4F0895709561957F4F08951A
:101AA000AA1BBB1B51E107C0AA1FBB1FA617B70784
:101AB00010F0A61BB70B881F991F5A95A9F78095A0
:101AC0009095BC01CD010895EE0FFF1F0590F49194
:101AD000E02D09940F931F93CF93DF9382309105EC
:101AE00010F482E090E0E0910F02F091100230E0FB
:101AF00020E0B0E0A0E0309799F42115310509F419
:101B00004AC0281B390B24303105D8F58A819B81C6
:101B10006115710589F1FB0193838283FE0111C078
:101B2000408151810281138148175907E0F048171D
:101B3000590799F4109761F012960C931297139627
:101B40001C933296CF01DF91CF911F910F91089591
:101B500000930F0210931002F4CF2115310551F0BC
:101B60004217530738F0A901DB019A01BD01DF01DB
:101B7000F801C1CFEF01F9CF9093100280930F02CB
:101B8000CDCFFE01E20FF31F8193919322503109D3
:101B900039832883D7CF20910D0230910E02232B59
:101BA00041F4209108013091090130930E022093F5
:101BB0000D0220910601309107012115310541F4F4
:101BC0002DB73EB740910A0150910B01241B350BF4
:101BD000E0910D02F0910E02E217F307A0F42E1B24
:101BE0003F0B2817390778F0AC014E5F5F4F241781
:101BF000350748F04E0F5F1F50930E0240930D02C1
:101C0000819391939FCFF0E0E0E09CCFCF93DF935F
:101C10000097E9F0FC01329713821282A0910F0223
:101C2000B0911002ED0130E020E01097A1F4208186
:101C30003181820F931F20910D0230910E022817DF
:101C4000390709F061C0F0930E02E0930D02DF91B5
:101C5000CF910895EA01CE17DF07E8F54A815B814D
:101C60009E0141155105B1F7E901FB83EA834991D2
:101C70005991C40FD51FEC17FD0761F48081918144
:101C80000296840F951FE90199838883828193814D
:101C90009B838A83F0E0E0E012968D919C911397EC
:101CA0000097B9F52D913C911197CD010296820FC5
:101CB000931F20910D0230910E022817390739F633
:101CC000309751F51092100210920F02B0930E024D
:101CD000A0930D02BCCFD383C28340815181840F76
:101CE000951FC817D90761F44E5F5F4F88819981AE
:101CF000480F591F518340838A819B81938382833C
:101D00002115310509F0B0CFF0931002E0930F02D6
:101D10009ECFFD01DC01C0CF13821282D7CFB0E08D
:101D2000A0E0E5E9FEE00C94A00C8C01009751F4D2
:101D3000CB010E946A0D8C01C801CDB7DEB7E0E18E
:101D40000C94BC0CFC01E60FF71F9C0122503109DA
:101D5000E217F30708F49DC0D901CD91DC911197EA
:101D6000C617D70798F0C530D10530F3CE010497D8
:101D70008617970708F3C61BD70B2297C193D193F9
:101D80006D937C93CF010E94060ED6CF5B01AC1AF7
:101D9000BD0A4C018C0E9D1EA0910F02B091100245
:101DA000512C412CF12CE12C109731F580910D0232
:101DB00090910E028815990509F05CC046165706E9
:101DC00008F058C08091060190910701009741F4F6
:101DD0008DB79EB740910A0150910B01841B950B62
:101DE000E817F90708F055C0F0930E02E0930D02D2
:101DF000F90171836083A0CF8D919C911197129608
:101E00006C90129713967C901397A815B90559F505
:101E10006C0142E0C40ED11CCA14DB0420F1AC01F9
:101E20004A195B09DA011296159780F06282738273
:101E300051834083D9016D937C93E114F10471F0D7
:101E4000D7011396FC93EE93129776CF22968C0FC0
:101E50009D1FF90191838083F301EFCFF09310026E
:101E6000E0930F0269CF4816590608F42C017D0152
:101E7000D3019ACFCB010E946A0D7C01009749F0F3
:101E8000AE01B8010E944C0FC8010E94060E8701E6
:101E900053CF10E000E050CFFB01DC0102C0019005
:101EA0000D9241505040D8F70895FB01DC0101909C
:101EB0000D920020E1F7089510E0C3E6D0E004C0E1
:101EC000FE010E94640D2196C436D107C9F7F8942B
:101ED000FFCF01FF01000000000011028000260179
:101EE000B8015D014B025D014B02080008000800CB
:101EF000040008000400000000002E018E00BB005A
:101F00007B01EC00CA00DE000D0A00436F727265AF
:101F100063742E0047616D65204F7665722E000058
:107E0000112484B714BE81FFF0D085E080938100F7
:107E100082E08093C00088E18093C10086E0809377
:107E2000C20080E18093C4008EE0C9D0259A86E02C
:107E300020E33CEF91E0309385002093840096BBD3
:107E4000B09BFECF1D9AA8958150A9F7CC24DD24C4
:107E500088248394B5E0AB2EA1E19A2EF3E0BF2EE7
:107E6000A2D0813461F49FD0082FAFD0023811F036
:107E7000013811F484E001C083E08DD089C08234E0
:107E800011F484E103C0853419F485E0A6D080C0E4
:107E9000853579F488D0E82EFF2485D0082F10E0AE
:107EA000102F00270E291F29000F111F8ED06801E7
:107EB0006FC0863521F484E090D080E0DECF843638
:107EC00009F040C070D06FD0082F6DD080E0C81688
:107ED00080E7D80618F4F601B7BEE895C0E0D1E017
:107EE00062D089930C17E1F7F0E0CF16F0E7DF06D8
:107EF00018F0F601B7BEE89568D007B600FCFDCFD4
:107F0000A601A0E0B1E02C9130E011968C91119780
:107F100090E0982F8827822B932B1296FA010C0160
:107F200087BEE89511244E5F5F4FF1E0A038BF0790
:107F300051F7F601A7BEE89507B600FCFDCF97BE46
:107F4000E89526C08437B1F42ED02DD0F82E2BD052
:107F50003CD0F601EF2C8F010F5F1F4F84911BD097
:107F6000EA94F801C1F70894C11CD11CFA94CF0C13
:107F7000D11C0EC0853739F428D08EE10CD085E9AC
:107F80000AD08FE07ACF813511F488E018D01DD067
:107F900080E101D065CF982F8091C00085FFFCCF94
:107FA0009093C60008958091C00087FFFCCF809118
:107FB000C00084FD01C0A8958091C6000895E0E648
:107FC000F0E098E1908380830895EDDF803219F02E
:107FD00088E0F5DFFFCF84E1DECF1F93182FE3DFCA
:107FE0001150E9F7F2DF1F91089580E0E8DFEE27F6
:047FF000FF270994CA
:027FFE00040479
:00000001FF
